:020000040800F2
:100000000000022005250008390A00083B0A000804
:100010003D0A00083F0A0008410A000800000000ED
:10002000000000000000000000000000430A00087B
:10003000450A000800000000470A0008490A0008B5
:1000400055250008552500085525000855250008A8
:100050005525000855250008552500085525000898
:100060005525000855250008552500085525000888
:100070005525000855250008552500085525000878
:10008000552500085525000855250008510A000887
:10009000610A0008710A0008810A00085525000855
:1000A0005525000855250008552500085525000848
:1000B0005525000855250008552500085525000838
:1000C0005525000855250008552500085525000828
:1000D0005525000855250008552500085525000818
:1000E0005525000855250008552500085525000808
:1000F00055250008552500085525000855250008F8
:1001000055250008552500085525000855250008E7
:1001100055250008552500085525000855250008D7
:1001200055250008552500085525000855250008C7
:1001300055250008552500085525000855250008B7
:1001400055250008552500085525000855250008A7
:100150005525000855250008910A00085525000876
:100160005525000855250008552500085525000887
:1001700055250008552500085525000800000000F9
:08018000552500085525000873
:1001880080F0004002E000BF81F0004142001FBF44
:100198005FEA410392EA030F7FEA226C7FEA236C4D
:1001A8006AD04FEA1262D2EB1363C1BFD218414042
:1001B80048404140B8BF5B42192B88BF704710F0D8
:1001C800004F40F4000020F07F4018BF404211F07B
:1001D800004F41F4000121F07F4118BF494292EAE3
:1001E800030F3FD0A2F1010241FA03FC10EB0C000F
:1001F800C3F1200301FA03F100F0004302D549429C
:1002080060EB4000B0F5000F13D3B0F1807F06D348
:1002180040084FEA310102F10102FE2A51D2B1F140
:10022800004F40EBC25008BF20F0010040EA030035
:100238007047490040EB0000013A28BFB0F5000FB5
:10024800EDD2B0FA80FCACF1080CB2EB0C0200FA6B
:100258000CF0AABF00EBC25052421843BCBFD040BA
:100268001843704792F0000F81F4000106BF80F434
:1002780000000132013BB5E74FEA41037FEA226CF7
:1002880018BF7FEA236C21D092EA030F04D092F0C2
:10029800000F08BF0846704790EA010F1CBF0020F6
:1002A800704712F07F4F04D1400028BF40F0004053
:1002B800704712F100723CBF00F50000704700F073
:1002C800004343F0FE4040F4000070477FEA22629A
:1002D80016BF08467FEA23630146420206BF5FEA6B
:1002E800412390EA010F40F4800070474FF000036B
:1002F80004E000BF10F0004348BF40425FEA000C32
:1003080008BF704743F0964301464FF000001CE0D9
:1003180050EA010208BF70474FF000030AE000BF2F
:1003280050EA010208BF704711F0004302D540426D
:1003380061EB41015FEA010C02BF844601460020DF
:1003480043F0B64308BFA3F18053A3F50003BCFAFA
:100358008CF2083AA3EBC25310DB01FA02FC6344A7
:1003680000FA02FCC2F12002BCF1004F20FA02F2AE
:1003780043EB020008BF20F00100704702F12002A1
:1003880001FA02FCC2F1200250EA4C0021FA02F202
:1003980043EB020008BF20EADC70704753B94AB942
:1003A800002908BF00281CBF4FF0FF314FF0FF3075
:1003B80000F00CB8ADF1080C6DE904CE02F0C8F8F5
:1003C800DDF804E0DDE9022304B07047704700BFA0
:1003D8000348044B834202D0034B03B118477047CC
:1003E8001000002010000020000000000548064B07
:1003F8001B1AD90F01EBA301491002D0034B03B11B
:10040800184770471000002010000020000000006E
:1004180010B5064C237843B9FFF7DAFF044B13B144
:100428000448AFF300800123237010BD10000020A2
:1004380000000000C028000808B5054B1BB105499D
:100448000548AFF30080BDE80840FFF7CFBF00BF05
:100458000000000014000020C028000808B50E485D
:100468000E4B0360A82343604FF080438360002352
:10047800C3604FF4702202614FF4E00242610376D8
:1004880043768376C3760377437700F021FC00B97F
:1004980008BD00F0EBF9FBE72C00002000640040E9
:1004A80010B588B00023039304930593069307932C
:1004B8000268254B9A4201D008B010BD002401946F
:1004C80003F5EA331A6C42F000721A641A6C02F0EF
:1004D80000720192019A02941A6B42F001021A63A7
:1004E8001B6B03F001030293029B4FF4C053039369
:1004F80002230493032306930923079303A91348AC
:1005080001F046FA22462146132001F017F813207D
:1005180001F024F822462146142001F00FF8142097
:1005280001F01CF822462146152001F007F8152095
:1005380001F014F822462146162000F0FFFF16208D
:1005480001F00CF8B8E700BF00640040000002406A
:1005580008B50221034800F057FE00B908BD00F0B5
:1005680085F9FBE72C00002000B58BB06022002144
:10057800164802F067F9164A002313605360154ABB
:10058800136053609360D360134800F0E5FCB0B982
:100598000023059306930122079200930193029387
:1005A8000393049308920E23099369460A4800F0BE
:1005B80035FC38B9FFF7CCFF0BB05DF804FB00F051
:1005C80055F9E5E700F052F9F4E700BF6C000020A8
:1005D80064000020540000202C00002000B58BB0DF
:1005E800002300E00133032B11DC5A0030F913100B
:1005F800B1F5FA5F03DD4FF4FA5120F81310815E6C
:1006080011F5FA5FEEDA4EF2C0018152EAE7B0F96D
:10061800003090F901208DF808208DF80930B0F9E4
:10062800023090F903208DF80A208DF80B30B0F9CC
:10063800043090F905208DF80C208DF80D30B0F9B4
:10064800063090F907208DF80E208DF80F304FF402
:1006580000730493002306930793082208928DF8E9
:10066800243001AB6A4404A9024800F0A3FC0BB093
:100678005DF804FB2C00002070B5A1F201210329CC
:100688003BD8DFE801F0023F3B3D00240378457882
:1006980045EA03258278120212B2C3781A43037915
:1006A8001B021BB241790B431C4904EB440001EBCC
:1006B800C00621F83050328173810123337400F071
:1006C800EDFA7061164B33F81430EB1AB3F5805F0E
:1006D8001ADD144A52F82430013B42F82430104BFA
:1006E80023F814500F4B53F8243005EB433504EB33
:1006F80044040A4B03EBC4035D6070BD0224C5E7E4
:100708000324C3E70124C1E713F5805FE7DA054A4C
:1007180052F82430013342F82430E0E76C0000201E
:10072800640000205400002008B500F0B7FA002348
:1007380000E00133032B0FDC03EB4301074A02EB14
:10074800C1025269821AC82AF3D9044A02EBC102CB
:10075800002111741181ECE708BD00BF6C00002076
:1007680002680A4B9A4200D0704700B58BB001ABC3
:1007780003AA002100F093FC10B10BB05DF804FB54
:10078800039901A8FFF778FFF7E700BF006400406E
:10079800014B00221A707047CC000020154A1378CC
:1007A8000133DBB21370042B23D910B584B0134680
:1007B80000221A70104B1B7CB3B10F4CB4F908001F
:1007C800FFF798FD01900D4BB3F90000FFF792FD7C
:1007D8000290B4F90A00FFF78DFD0390032101A8E8
:1007E80000F0D0F904B010BD0023019302930393E5
:1007F800F4E77047CC0000206C000020D0000020F7
:1008080000B583B000210191094B1A6B42F48002B4
:100818001A631B6B03F480030193019B0A4646206D
:1008280000F08CFE462000F099FE03B05DF804FB52
:100838000038024082B0002100910B4B1A6B42F045
:1008480080021A631A6B02F080020092009A0191EA
:100858001A6B42F001021A631B6B03F00103019348
:10086800019B02B0704700BF0038024072B6FEE735
:1008780010B594B008AC30220021204601F0E2FF08
:1008880000230393049305930693079301931F4A48
:10089800116C41F080511164126C02F08052019287
:1008A800019A02931A4A116841F480411160126852
:1008B80002F480420292029A0222089201210B91CC
:1008C80010210C910E920F9308231093A8231193D3
:1008D800129204231393204601F054F990B90F2380
:1008E800039302230493002305934FF4A053069324
:1008F8004FF480530793052103A801F093FB18B91F
:1009080014B010BDFFF7B2FFFFF7B0FF0038024088
:100918000070004008B500F09BF900F031F9FFF7CE
:10092800A7FFFFF787FFFFF76BFFFFF797FD00F0C3
:10093800B5F8FFF719FE0221094800F065FCFFF73A
:1009480027FFFFF7F1FE074800F010F80648FFF709
:1009580045FEFFF723FF022000F0A6F9F1E700BFEC
:100968002C0000206C000020D000002082B0002362
:10097800009301931E4B1B78012B24D0022B27D008
:10098800002323E04FF4FA6102AA02EB430222F8A3
:10099800081C05E0002102AA02EB430222F8081C09
:1009A8000133032B14DC03EB430200EBC202127C7D
:1009B800002AEFD0002BE5D0002102AA02EB430267
:1009C80022F8081CECE70023EBE70133032BFCDDDE
:1009D800002308E002AA02EB430232F9081C054A88
:1009E80022F813100133032BF4DD02B0704700BF67
:1009F80000000020D000002082B0002100910B4BA5
:100A08005A6C42F480425A645A6C02F48042009252
:100A1800009A01911A6C42F080521A641B6C03F020
:100A280080530193019B02B0704700BF0038024019
:100A3800FEE7FEE7FEE7FEE7FEE770477047704710
:100A480008B500F01FF908BD08B5024800F0FAFB28
:100A580008BD00BF2C00002008B5024800F0F2FBDA
:100A680008BD00BF2C00002008B5024800F0EAFBD2
:100A780008BD00BF2C00002008B5024800F0E2FBCA
:100A880008BD00BF2C00002008B5024800F092FE07
:100A980008BD00BFD80000207047000008B50A480C
:100AA8000A4B03604FF4E133436000238360C36063
:100AB80003610C2242618361C36101F04FFC00B9FC
:100AC80008BDFFF7D3FEFBE7380100200010014006
:100AD80030B589B0002303930493059306930793D5
:100AE800026803F1804303F588339A4201D009B0C4
:100AF80030BD04460025019503F594335A6C42F045
:100B080010025A645A6C02F010020192019A02957E
:100B18001A6B42F001021A631B6B03F00103029384
:100B2800029B4FF4C06303930223049303230693A9
:100B38000723079303A90F4800F02AFF0E480F4B1D
:100B480003604FF00063436040238360C5604FF447
:100B58008063036145618561C5610562456200F096
:100B68008FFD18B9044BA3639C63C0E7FFF77EFEB3
:100B7800F8E700BF00000240D8000020B864024037
:100B88007047000038B54B1EDBB2092B02D8134B57
:100B98001D7805B138BD8C00E4B2114B55221A708E
:100BA800AA225A7000229A70DC7022460146181D4B
:100BB80001F074FE022304E0094AD25C2A44D5B24B
:100BC8000133221D9A42F7DC05498D54034B01225B
:100BD8001A70621D034801F0F1FBDBE78001002079
:100BE80084010020380100200268044B1B689A42E7
:100BF80000D07047024B00221A70FAE73801002033
:100C08008001002010B504460E4B1A784FF47A7311
:100C1800B3FBF2F30C4A1068B0FBF3F000F0A2FC4F
:100C280068B90F2C01D901200AE0002221464FF0B3
:100C3800FF3000F083FC054B1C60002000E0012021
:100C480010BD00BF08000020040000200C00002098
:100C580008B50B4B1A6842F400721A601A6842F41D
:100C680080621A601A6842F480721A60032000F0E9
:100C780053FC0F20FFF7C6FFFFF7BEFE002008BD9C
:100C8800003C0240034A1168034B1B780B44136075
:100C9800704700BFC401002008000020014B1868FD
:100CA800704700BFC401002038B50446FFF7F6FFBF
:100CB8000546B4F1FF3F02D0044B1B781C44FFF7F4
:100CC800EDFF401BA042FAD338BD00BF080000204A
:100CD800002800F0A18038B5044690F82030D3B140
:100CE8002268136843F001031360FFF7D7FF054636
:100CF80023685A6812F0010F10D1FFF7CFFF401B8D
:100D08000A28F5D9636A43F400336362052384F83B
:100D18002030012038BDFFF7C3FBE1E71A6822F055
:100D280002021A60FFF7BAFF054623685A6812F0F4
:100D3800020F0DD0FFF7B2FF401B0A28F5D9636AEE
:100D480043F400336362052384F820300120E1E78F
:100D5800227E012A3DD01A6822F080021A60637E42
:100D6800012B3BD02268136823F040031360A37E55
:100D7800012B39D02268136823F020031360E37E27
:100D8800012B37D02268136843F010031360237FC8
:100D9800012B35D02268136823F008031360637FA2
:100DA800012B33D02268136823F004031360A3686F
:100DB800E268134322691343626913436268013A84
:100DC80021681343CB6100206062012384F820303E
:100DD800A0E71A6842F080021A60C0E72268136828
:100DE80043F040031360C2E72268136843F020030E
:100DF8001360C4E72268136823F010031360C6E782
:100E08002268136843F008031360C8E72268136870
:100E180043F004031360CAE70120704790F82030BC
:100E2800013BDBB2012B05D9436A43F480234362BB
:100E38000120704710B5474BD3F8002242F0010259
:100E4800C3F80022D3F8002222F47C52C3F800220F
:100E5800D3F80022486A42EA0022C3F800224A690D
:100E680002F01F02012000FA02F2D3F81C026FEA16
:100E7800020C20EA0200C3F81C02CB69CBB9354B3F
:100E8800D3F80C020CEA0000C3F80C028C884869FD
:100E9800D1F80CE044EA0E44483043F830408C68FE
:100EA800088840EA04404C6904F1480E03EBCE037D
:100EB8005860CB69012B1ED08B69002B35D1254892
:100EC800D0F804320CEA0303C0F804320B699BBB68
:100ED8002048D0F814320CEA0303C0F814320B6A25
:100EE800012B30D01B4AD2F8003223F00103C2F89C
:100EF8000032002010BD174BD3F80C021043C3F882
:100F08000C028C884869D1F800E044EA0E44483065
:100F180043F8304088894C69D1F808E040EA0E402F
:100F2800483403EBC4035860C6E70A48D0F80432D3
:100F38001343C0F80432C9E70648D0F81432134303
:100F4800C0F81432CBE70349D1F81C321343C1F877
:100F58001C32C7E70064004070B5044690F82030A2
:100F6800012B06D0436A43F400234362012630462E
:100F780070BDDEB2022380F820300268136823F0C7
:100F880001031360FFF78AFE054623685B6813F0C8
:100F9800010F0CD0FFF782FE431B0A2BF5D9636AB9
:100FA80043F400336362052384F82030DFE700262A
:100FB8006662DCE730B590F820C00468A4680CF1DC
:100FC800FF3C5FFA8CFCBCF1010F62D814F0E05FC3
:100FD80059D0C4F3016C012404FA0CF41C608B682A
:100FE800002B3DD10D68CB68046843EA45550CF1E8
:100FF80018031B01E55003680C690CF1180E03EB8C
:101008000E135C600B7D012B35D0D17993791B04CD
:1010180043EA0163517943EA0123147901682343C0
:1010280001EB0C11C1F88C31D17893781B0443EA99
:101038000163517843EA0123117802680B4302EBFC
:101048000C12C2F8883102680CF1180C4FEA0C1C1B
:1010580052F80C3043F0010342F80C3000201DE038
:101068004C6843EAC403CC6823430CF118042401F8
:1010780005682B51BFE7036803EB0E13596841F469
:1010880080715960C1E7436A43F400134362012049
:1010980004E0436A43F480234362012030BD90F8A2
:1010A80020C00CF1FF3C5FFA8CFCBCF1010F00F290
:1010B800A58030B451B90468E46814F0030F10D166
:1010C800436A43F40013436201207EE00468246904
:1010D80014F0030F05D1436A43F40013436201205F
:1010E80073E0056801F11B0424012C5904F0040481
:1010F8009460002C6BD1056801F11B0424012C5964
:10110800640D1460046801F11B0C4FEA0C1C54F8C0
:101118000C4004F00204D4600468A444DCF80450D1
:1011280015F0080F5BD008241461046801F11B0C4A
:1011380004EB0C146468C4F307249461046804EB9A
:101148000C146468240C5461026802EB0112D2F892
:10115800B8211A70026802EB0112D2F8B821C2F362
:1011680007225A70026802EB0112D2F8B821C2F3C2
:1011780007429A70026802EB0112D2F8B821120EE7
:10118800DA70026802EB0112D2F8BC211A71026807
:1011980002EB0112D2F8BC21C2F307225A7102688D
:1011A80002EB0112D2F8BC21C2F307429A7102681D
:1011B80002EB0112D2F8BC21120EDA71C1B9026831
:1011C800D36843F02003D360002030BC7047056823
:1011D80001F11B0424012C59E408546092E701F141
:1011E8001B0504EB0514646804F00F0414619CE704
:1011F8000268136943F020031361E5E7436A43F487
:10120800802343620120704790F82030013BDBB215
:10121800012B05D9436A43F48023436201207047B8
:10122800026853690B435361002070477047704749
:1012380070477047704770477047704770477047EE
:10124800704770472DE9F84F054603685C69D3F885
:1012580004809F68D3F80CA0D3F81090D3F818B086
:1012680014F001063BD017F0010616D001229A604F
:1012780017F0020F08D117F0040F0CD117F0080669
:1012880006D04FF4805608E0FFF7D0FF002604E0B0
:10129800FFF7CFFF01E04FF4006617F4807F0DD011
:1012A8002B684FF480729A6017F4007F40F09680A4
:1012B80017F4806F00F0968046F4005617F4803FCC
:1012C8000DD02B684FF480329A6017F4003F40F03D
:1012D800938017F4802F00F0938046F4004614F0B2
:1012E800080F07D01AF0100F04D046F400762B68C8
:1012F8001022DA6014F0040F03D01AF0080F40F03F
:10130800898014F0020F05D02B68DB6813F0030FF7
:1013180040F0878014F0400F07D019F0100F04D068
:1013280046F480662B6810221A6114F0200F02D050
:1013380019F0080F79D114F0100F04D02B681B692D
:1013480013F0030F78D114F4003F02D018F0100FF7
:1013580076D114F4803F02D018F0080F77D114F436
:10136800004F37D018F0040F31D014F4807F04D028
:101378001BF0010F01D046F0010614F4007F04D0E1
:101388001BF0020F01D046F0020614F4806F04D05F
:101398001BF0040F01D046F0040614F4006F16D0B9
:1013A8001BF0700B13D0BBF1400F66D056D8BBF1C1
:1013B800200F5CD0BBF1300F5CD0BBF1100F01D116
:1013C80046F008062A68936923F0700393612B6836
:1013D80004225A60002E56D1BDE8F88F2846FFF740
:1013E80026FF6BE717F4006F02D046F4804665E7E6
:1013F8002846FFF71FFF61E72846FFF719FF6EE74A
:1014080017F4002F02D046F4803668E72846FFF725
:1014180012FF64E72B680822DA602846FFF70CFF02
:101428006FE72846FFF79CF974E72B6808221A61D2
:101438002846FFF703FF7EE72846FFF7FEFE82E710
:101448002B6810225A602846FFF7F9FE81E72B68BF
:1014580008225A602846FFF7F3FE80E7BBF1500FD9
:101468000ED0BBF1600FADD146F48076AAE746F006
:101478001006A7E746F02006A4E746F04006A1E7D5
:1014880046F080069EE76B6A33436B622846FFF797
:10149800D8FEA1E7002807DB00F01F02400901235E
:1014A8009340024A42F82030704700BF00E100E054
:1014B800002808DB0901C9B200F1604000F561406D
:1014C80080F80013704700F00F000901C9B2014B02
:1014D8001954704714ED00E000B500F00700C0F1A2
:1014E800070CBCF1040F28BF4FF0040C031D062B9A
:1014F8000FD9C31E4FF0FF3E0EFA0CF021EA00018F
:1015080099400EFA03FE22EA0E0241EA02005DF853
:1015180004FB0023EEE70000074AD36823F4E063E6
:101528001B041B0C000200F4E060034343F0BF639C
:1015380043F40033D360704700ED00E010B5044673
:10154800054BD868C0F30220FFF7C6FF01462046C6
:10155800FFF7AEFF10BD00BF00ED00E008B5FFF7D4
:1015680099FF08BD0138B0F1807F0BD24FF0E0231E
:101578005861054AF02182F823100020986107225B
:101588001A6170470120704700ED00E030B405682B
:101598002C6824F480242C60046863608368402BE2
:1015A80005D0036899600368DA6030BC7047036847
:1015B8009A600368D960F8E710B40368D9B21039A3
:1015C800094AA2FB01421209084CA25CC2655F29C4
:1015D80006D96FF3090304338365806D10BC704727
:1015E8006FF309038365F8E7ABAAAAAAF0280008F5
:1015F800836A826992B9012B0AD0022B02D00BB1FF
:1016080000207047C36A13F0807F28D100207047FC
:10161800C36AB3F1C07F24D000207047B2F5005FE1
:1016280009D0022B25D9032B25D1C36A13F0807F5B
:1016380023D100207047032B03D8DFE803F01404FC
:10164800140A00207047C36A13F0807F0DD1002070
:101658007047C36AB3F1C07F09D0002070470120EA
:101668007047012070470120704701207047012012
:101678007047012070470020704701207047000024
:1016880070B50446FFF70AFB002C5BD00546022321
:1016980084F83530002384F834302268136823F046
:1016A8000103136023681A6812F0010F0AD0FFF7CC
:1016B800F5FA431B052BF5D920236365032084F82D
:1016C800350070BD1A68204911406268A06802435D
:1016D800E06802432069024360690243A06902434B
:1016E800E0690243206A02430A43616A04291ED062
:1016F8001A602668756925F00705636A1D43042B7F
:1017080007D1A36A1D43E36A1BB12046FFF770FFA8
:1017180090B975612046FFF74FFFE26D3F23934074
:10172800836000206065012384F83530C9E7E16AE9
:10173800206B01430A43DBE740236365012084F8FB
:101748003500BEE70120BCE73F8010F038B50446FD
:10175800856D90F8340001282AD0012084F83400DF
:1017680094F83500012804D0002384F8343002208E
:1017780038BD022084F83500002060652046FFF758
:1017880005FFE26D3F239340AB602268136843F086
:1017980016031360236C23B12268136843F008030F
:1017A80013602268136843F0010313600020DFE729
:1017B8000220DDE7F0B583B0044600230193724BA5
:1017C8001D68724BA3FB0535AD0A876D3E68C26D77
:1017D80008239340334210D003681A6812F0040FAC
:1017E8000BD01A6822F004021A60C26D08239340D5
:1017F800BB60436D43F001034365E26D01239340F1
:10180800334209D02268526912F0800F04D0BB60BD
:10181800636D43F002036365E26D04239340334232
:1018280009D02268126812F0020F04D0BB60636D01
:1018380043F004036365E26D10239340334224D0E0
:101848002268126812F0080F1FD0BB6023681A685C
:1018580012F4802F0DD01B6813F4002F04D1236CD1
:101868009BB12046984710E0A36C73B12046984777
:101878000BE01A6812F4807F03D11A6822F008027C
:101888001A60236C0BB120469847E26D20239340E1
:10189800334254D02268126812F0100F4FD0BB6048
:1018A80094F83530052B0ED023681A6812F4802F6F
:1018B80033D01B6813F4002F2AD1636C002B3ED061
:1018C800204698473BE02268136823F0160313600C
:1018D8002268536923F080035361236CA3B1226803
:1018E800136823F008031360E26D3F239340BB6045
:1018F800012384F83530002384F83430236D002B1D
:101908003FD0204698473CE0A36C002BE7D1EBE79B
:10191800E36BA3B12046984711E01A6812F4807F60
:1019280009D11A6822F010021A60012384F83530B0
:10193800002384F83430E36B0BB120469847636D7D
:10194800FBB1636D13F0010F17D0052384F8353010
:101958002268136823F001031360019B013301938C
:10196800AB4204D823681B6813F0010FF5D101239B
:1019780084F83530002384F83430E36C0BB120460A
:10198800984703B0F0BD00BF04000020B5814E1B8E
:1019980000230F2B00F2EC8030B583B068E0856837
:1019A8004FEA430E032404FA0EF425EA0405CC6832
:1019B80004FA0EF42C438460446824EA02044A685A
:1019C800C2F300129A40224342605FE0DC08083408
:1019D80050F8242003F00705AD004FF00F0E0EFA63
:1019E80005FE22EA0E0E0A69AA4042EA0E0240F8F3
:1019F80024205FE0072200E0002202FA0EF22A43C8
:101A080002345C4D45F824205B4A94686FEA0C0266
:101A180024EA0C05D1F804E01EF4801F01D04CEA3A
:101A28000405554CA560E46802EA0405D1F804E011
:101A38001EF4001F01D04CEA04054F4CE5606468B1
:101A480002EA0405D1F804E01EF4003F01D04CEA94
:101A58000405494C6560246822404D6815F4803FB0
:101A680001D04CEA0402444C226001330F2B7DD88C
:101A780001229A400C6804EA020C32EA0404F4D108
:101A88004C6804F00304013C012C88D94A6802F030
:101A98000302032A09D0C4685D000322AA4024EA8D
:101AA80002048A68AA402243C2604A6802F003021C
:101AB800022A8BD004684FEA430E032202FA0EF280
:101AC80024EA02044A6802F0030202FA0EF22243F0
:101AD80002604A6812F4403FC7D000220192274AA8
:101AE800546C44F480445464526C02F48042019271
:101AF800019A9C08A51C1F4A52F8255003F0030EB2
:101B08004FEA8E0E0F2202FA0EF225EA02051C4A4F
:101B180090423FF471AF02F5806290421AD002F50C
:101B28008062904218D002F58062904216D002F589
:101B38008062904214D002F58062904212D002F581
:101B48008062904210D002F5806290423FF452AF1A
:101B5800082252E7012250E702224EE703224CE70F
:101B680004224AE7052248E7062246E703B030BDCB
:101B7800704700BF00380140003C01400038024077
:101B880000000240002800F0E08170B582B00446F1
:101B9800036813F0010F3BD09F4B9B6803F00C03C5
:101BA800042B2CD09C4B9B6803F00C03082B21D0F2
:101BB8006368B3F5803F4FD0B3F5A02F52D0964B52
:101BC8001A6822F480321A601A6822F480221A6095
:101BD8006368002B50D0FFF761F805468E4B1B68F1
:101BE80013F4003F14D1FFF759F8401B6428F5D9C6
:101BF8000320B1E1884B5B6813F4800FD8D0864B83
:101C08001B6813F4003F03D06368002B00F09F812A
:101C1800236813F0020F54D07F4B9B6813F00C0F0E
:101C28003ED07D4B9B6803F00C03082B33D0E36850
:101C3800002B68D0794B01221A60FFF72FF8054670
:101C4800754B1B6813F0020F54D1FFF727F8401BA0
:101C58000228F5D903207FE16F4A136843F48033E3
:101C68001360B5E76C4B1A6842F480221A601A6850
:101C780042F480321A60ABE7FFF710F80546664B6E
:101C88001B6813F4003FC3D0FFF708F8401B642813
:101C9800F5D9032060E1604B5B6813F4800FC6D16F
:101CA8005D4B1B6813F0020F03D0E368012B40F073
:101CB8005081594A136823F0F803216943EAC103A4
:101CC8001360236813F0080F42D063696BB3534B5A
:101CD8000122C3F8802EFEF7E1FF05464E4B5B6FED
:101CE80013F0020F34D1FEF7D9FF401B0228F5D9B3
:101CF800032031E1484A136823F0F803216943EAD5
:101D0800C1031360DDE7454B00221A60FEF7C6FFEA
:101D18000546414B1B6813F0020FD2D0FEF7BEFFF9
:101D2800401B0228F5D9032016E13C4B0022C3F8DA
:101D3800802EFEF7B3FF0546374B5B6F13F0020F9B
:101D480006D0FEF7ABFF401B0228F5D9032003E1BC
:101D5800236813F0040F77D02F4B1B6C13F0805FB0
:101D680033D1002301932C4B1A6C42F080521A6431
:101D78001B6C03F080530193019B0125284B1B68C2
:101D880013F4807F23D0A368012B34D0052B38D0DF
:101D9800214B1A6F22F001021A671A6F22F004020F
:101DA8001A67A368002B3DD0FEF778FF06461A4B4A
:101DB8001B6F13F0020F46D1FEF770FF801B41F234
:101DC80088339842F3D90320C6E00025D6E7144AA1
:101DD800136843F480731360FEF760FF0646104BE8
:101DE8001B6813F4807FCED1FEF758FF801B0228B2
:101DF800F5D90320B0E0084A136F43F001031367D5
:101E0800CFE7054B1A6F42F004021A671A6F42F0C7
:101E180001021A67C5E700BF0038024000004742C8
:101E280000700040FEF73AFF0646524B1B6F13F056
:101E3800020F08D0FEF732FF801B41F28833984228
:101E4800F3D9032088E0EDB9A369002B00F0838063
:101E5800484A926802F00C02082A51D0022B17D087
:101E6800454B00221A66FEF719FF0446414B1B68D2
:101E780013F0007F42D0FEF711FF001B0228F5D9AE
:101E8800032069E03B4A136C23F080531364DBE7BB
:101E9800394B00221A66FEF701FF0546354B1B68D1
:101EA80013F0007F06D0FEF7F9FE401B0228F5D993
:101EB800032051E0E369226A1343626A43EA82130A
:101EC800A26A5208013A43EA0243E26A43EA026319
:101ED800284A5360284B01221A66FEF7DFFE0446A3
:101EE800244B1B6813F0007F06D1FEF7D7FE001BBA
:101EF8000228F5D903202FE000202DE000202BE058
:101F0800012B2BD01B4B5B6803F48001E2699142E3
:101F180026D103F03F02216A8A4223D1616A47F63B
:101F2800C0721A40B2EB811F1ED103F44031A26A7D
:101F38005208013AB1EB024F18D103F07063E26A1C
:101F4800B3EB026F14D1002006E001207047012096
:101F580002E0012000E0002002B070BD0120FBE794
:101F68000120F9E70120F7E70120F5E70120F3E771
:101F78000120F1E7003802400000474208B5264B2F
:101F88009B6803F00C03042B41D0082B41D1224B52
:101F98005A6802F03F025B6813F4800F12D01E4BA0
:101FA8005968C1F388111D480023A1FB0001FEF701
:101FB800F5F9194B5B68C3F3014301335B00B0FBD0
:101FC800F3F008BD144B5868C0F388104FEA401C62
:101FD800BCEB000C6EEB0E0E4FEA8E1343EA9C63CB
:101FE8004FEA8C11B1EB0C0163EB0E03DB0043EA03
:101FF8005173C90011EB000C43F10003990200234F
:102008004FEA8C2041EA9C51FEF7C8F9D1E7034812
:10201800D7E70348D5E700BF0038024040787D0184
:102028000024F400002800F09B8070B50D4604469B
:102038004F4B1B6803F007038B4208D2CBB24C4AC4
:102048001370136803F007038B4240F08B802368FA
:1020580013F0020F17D013F0040F04D0454A936809
:1020680043F4E0539360236813F0080F04D0414A07
:10207800936843F4604393603E4A936823F0F00307
:10208800A1680B439360236813F0010F32D0636893
:10209800012B21D09A1E012A25D9364A126812F03E
:1020A800020F61D033498A6822F0030213438B6020
:1020B800FEF7F4FD06462F4B9B6803F00C0362689D
:1020C800B3EB820F16D0FEF7E9FD801B41F288338F
:1020D8009842F0D9032042E0264A126812F4003FE1
:1020E800E0D101203BE0234A126812F0007FD9D1E9
:1020F800012034E01E4B1B6803F00703AB4207D9ED
:10210800EAB21B4B1A701B6803F00703AB422DD1D0
:10211800236813F0040F06D0164A936823F4E0539B
:10212800E1680B439360236813F0080F07D0114A46
:10213800936823F46043216943EAC1039360FFF77E
:102148001DFF0C4B9B68C3F303130B4AD35CD840A9
:102158000A4B18600A4B1868FEF754FD002070BD42
:10216800012070470120FAE70120F8E70120F6E78F
:10217800003C024000380240E0280008040000202B
:102188000C000020014B1868704700BF04000020B5
:1021980008B5FFF7F7FF044B9B68C3F38223034A94
:1021A800D35CD84008BD00BF00380240D8280008DA
:1021B80008B5FFF7E7FF044B9B68C3F34233034AB4
:1021C800D35CD84008BD00BF00380240D8280008BA
:1021D800026802F10C0353E8003F23F0C0030C32FD
:1021E80042E800310029F3D1202380F841307047BC
:1021F800026802F10C0353E8003F23F490730C3299
:1022080042E800310029F3D1026802F1140353E8CF
:10221800003F23F00103143242E800310029F3D1D2
:10222800036B012B05D0202380F842300023036381
:102238007047026802F10C0353E8003F23F01003D3
:102248000C3242E800310029F3D1ECE710B504461E
:102258000268136923F44053C1680B431361836810
:1022680002691A4343691A43C3691A430168CB6870
:1022780023F4164323F00C031343CB60026853691D
:1022880023F4407381690B4353610368314A9342D5
:1022980006D002F58062934202D0FFF779FF01E091
:1022A800FFF786FFE369B3F5004F29D00021031833
:1022B80049411B1841F10001C90041EA5371DB0093
:1022C800181863684FEA83024FEA937341F10001DB
:1022D800FEF764F8204AA2FB00314909642303FB96
:1022E80011031B013233A2FB03235B0903F0F00245
:1022F80002EB011203F00F03216813448B6010BD39
:102308000023021843EB0301121841F10001C90030
:1023180041EA5271D200101841F100016268921826
:102328005B41FEF73BF80C4AA2FB003149096423E4
:1023380003FB1103DB003233A2FB03235B095A00C2
:1023480002F4F87202EB011203F007032168134448
:102358008B60D4E7001001401F85EB5160B310B5C6
:10236800044690F8413013B3242384F8413022689E
:10237800D36823F40053D3602046FFF767FF226831
:10238800136923F4904313612268536923F02A03E5
:1023980053612268D36843F40053D360002060641B
:1023A800202384F8413084F84230606310BD80F8FF
:1023B8004030FEF78DFBD7E70120704738B513464C
:1023C80090F84120202A36D10446002935D00BB98F
:1023D800012031E001628384C38400224264212009
:1023E80084F84100A06B164DC563A06B154D0564BC
:1023F800A06B154DC564A06B026522680432A06B02
:10240800FFF7A4F930B110236364202384F8413026
:10241800012011E023686FF040021A60226802F17F
:10242800140353E8003F43F08003143242E80031BC
:102438000029F3D100E0022038BD0120FCE700BFED
:1024480055240008A3240008AF24000808B5034653
:10245800806B1B681B6813F4807F1AD10023C38428
:10246800026802F1140353E8003F23F0800314329A
:1024780042E800310029F3D1026802F10C0353E865
:10248800003F43F040030C3242E800310029F3D109
:1024980008BDFEF7A9FBFBE7704708B5806BFFF79F
:1024A800FBFF08BD704710B5846B23685B6994F81F
:1024B8004120212A0FD023685B6903F0400394F878
:1024C8004220222A11D0636C43F010036364204633
:1024D800FFF7E8FF10BD03F08003002BEBD00023CB
:1024E800E3842046FFF774FEE5E7002BEBD00023DA
:1024F800E3852046FFF77CFEE5E70000DFF834D0EF
:10250800FEF7CAFA0C480D490D4A002302E0D458D8
:10251800C4500433C4188C42F9D30A4A0A4C002325
:1025280001E013600432A242FBD300F093F9FEF7F6
:10253800F1F9704700000220000000201000002080
:102548000829000810000020C8010020FEE700004C
:102558002DE9F047089D0F4604468E46002B48D1CA
:102568008A42164661D9B2FA82F24AB1C2F1200310
:1025780001FA02FE20FA03F3964043EA0E0E944055
:102588004FEA164CBEFBFCF1B7B20CFB11EE01FB97
:1025980007F0230C43EA0E43984209D9F31801F1D6
:1025A800FF3E80F0ED80984240F2EA8002393344E1
:1025B8001B1AB3FBFCF00CFB103300FB07F7A4B2AB
:1025C80044EA0344A74209D9341900F1FF3380F0E3
:1025D800D980A74240F2D6803444023840EA01400C
:1025E8000021E41B1DB10023D440C5E90043BDE828
:1025F800F0878B4206D90DB1C5E9000100210846D4
:10260800BDE8F087B3FA83F1002947D1BB4202D372
:10261800824200F20481841A67EB03020120964685
:10262800002DE4D0C5E9004EE1E7002A00F09080D3
:10263800B2FA82F2002A40F0A780881B0121370CE9
:102648001FFA86FEB0FBF7FC07FB1C00230C43EACD
:1026580000430EFB0CF0984207D9F3180CF1FF3831
:1026680002D2984200F2E080C4461B1AB3FBF7F08E
:1026780007FB10330EFB00FEA4B244EA0344A64550
:1026880007D9341900F1FF3302D2A64500F2C980F8
:102698001846A4EB0E0440EA0C40A3E7C1F120065B
:1026A8008B4022FA06FC4CEA030C27FA06FA4FEA9A
:1026B8001C49BAFBF9F88F4020FA06F309FB18AA5F
:1026C8001FFA8CFE3B4300FA01F708FB0EF01C0CC6
:1026D80044EA0A44A04202FA01F20BD91CEB0404B2
:1026E80008F1FF3A80F09980A04240F29680A8F164
:1026F80002086444241A98B2B4FBF9F309FB1344A2
:1027080003FB0EFE40EA0444A64508D91CEB04046A
:1027180003F1FF307FD2A6457DD9023B644443EAEA
:102728000840A4EB0E04A0FB028E74454346F14614
:1027380061D35ED055B1FA1A64EB090404FA06F6BF
:1027480022FA01F31E43CC40C5E9006400214EE79C
:1027580043084FEA510C43EAC1710A0C42EA0C42A1
:102768008BB2C407B2FBF6F143EA0243BCFBF6FCAA
:10277800B646304637461F22181A41EA0C4161E72F
:10278800714615E7184629E7C2F1200321FA03F03C
:10279800964024FA03F397403B43370CB0FBF7F815
:1027A80007FB18001FFA86FE190C41EA004108FBD6
:1027B8000EF0884204FA02F43AD9711808F1FF3C85
:1027C80001D288421ED8091AB1FBF7F808FB0EF0AF
:1027D80007FB18119BB243EA014383422FD2F31837
:1027E80008F1FF31C8D28342C6D2A8F102013344AE
:1027F800C2E747459ED2B8EB02036EEB0C0E0138D8
:10280800F14697E7301A0144A8F1020CB1FBF7F83A
:1028180008FB0EF0DCE7034681E7D0466AE7084686
:10282800FEE63444023834E7ACF1020C33441CE7CA
:10283800091AC446B1FBF7F808FB0EF0C8E7414691
:102848009AE700BF03460244934200D1704703F859
:10285800011BF9E770B500260C4D0D4B5B1B9C1056
:10286800A64209D1002600F027F80A4D0A4B5B1B47
:102878009C10A64205D170BD55F8043B9847013617
:10288800EEE755F8043B98470136F2E700290008BF
:102898000029000800290008042900080A44914278
:1028A80000F1FF3300D1704710B511F8014B914288
:1028B80003F8014FF9D110BDF8B500BFF8BC08BC4A
:1028C8009E467047F8B500BFF8BC08BC9E467047E6
:1028D80000000000010203040000000000000000E6
:1028E8000102030406070809000610160006101660
:0828F80060FCFF7F01000000FD
:042900004104000886
:0429040019040008AA
:10290800010000000024F400010000001000000095
:0400000508002505C5
:00000001FF
